{"address":"0xB2b33f78D1A151b6C175B6844125dfda6d243b86","bytecode":"0x608060405234801561001057600080fd5b5060405162000b1738038062000b178339818101604052602081101561003557600080fd5b810190808051604051939291908464010000000082111561005557600080fd5b8382019150602082018581111561006b57600080fd5b825186600182028301116401000000008211171561008857600080fd5b8083526020830192505050908051906020019080838360005b838110156100bc5780820151818401526020810190506100a1565b50505050905090810190601f1680156100e95780820380516001836020036101000a031916815260200191505b5060405250505061011d60405180606001604052806022815260200162000af5602291398261013a60201b6102f21760201c565b80600090805190602001906101339291906102d5565b5050610380565b6102a88282604051602401808060200180602001838103835285818151815260200191508051906020019080838360005b8381101561018657808201518184015260208101905061016b565b50505050905090810190601f1680156101b35780820380516001836020036101000a031916815260200191505b50838103825284818151815260200191508051906020019080838360005b838110156101ec5780820151818401526020810190506101d1565b50505050905090810190601f1680156102195780820380516001836020036101000a031916815260200191505b509450505050506040516020818303038152906040527f4b5c4277000000000000000000000000000000000000000000000000000000007bffffffffffffffffffffffffffffffffffffffffffffffffffffffff19166020820180517bffffffffffffffffffffffffffffffffffffffffffffffffffffffff83818316178352505050506102ac60201b60201c565b5050565b60008151905060006a636f6e736f6c652e6c6f679050602083016000808483855afa5050505050565b828054600181600116156101000203166002900490600052602060002090601f01602090048101928261030b5760008555610352565b82601f1061032457805160ff1916838001178555610352565b82800160010185558215610352579182015b82811115610351578251825591602001919060010190610336565b5b50905061035f9190610363565b5090565b5b8082111561037c576000816000905550600101610364565b5090565b61076580620003906000396000f3fe608060405234801561001057600080fd5b50600436106100365760003560e01c8063a41368621461003b578063cfae3217146100f6575b600080fd5b6100f46004803603602081101561005157600080fd5b810190808035906020019064010000000081111561006e57600080fd5b82018360208201111561008057600080fd5b803590602001918460018302840111640100000000831117156100a257600080fd5b91908080601f016020809104026020016040519081016040528093929190818152602001838380828437600081840152601f19601f820116905080830192505050505050509192919290505050610179565b005b6100fe610250565b6040518080602001828103825283818151815260200191508051906020019080838360005b8381101561013e578082015181840152602081019050610123565b50505050905090810190601f16801561016b5780820380516001836020036101000a031916815260200191505b509250505060405180910390f35b61023660405180606001604052806023815260200161070d6023913960008054600181600116156101000203166002900480601f01602080910402602001604051908101604052809291908181526020018280546001816001161561010002031660029004801561022b5780601f106102005761010080835404028352916020019161022b565b820191906000526020600020905b81548152906001019060200180831161020e57829003601f168201915b50505050508361045e565b806000908051906020019061024c929190610661565b5050565b606060008054600181600116156101000203166002900480601f0160208091040260200160405190810160405280929190818152602001828054600181600116156101000203166002900480156102e85780601f106102bd576101008083540402835291602001916102e8565b820191906000526020600020905b8154815290600101906020018083116102cb57829003601f168201915b5050505050905090565b61045a8282604051602401808060200180602001838103835285818151815260200191508051906020019080838360005b8381101561033e578082015181840152602081019050610323565b50505050905090810190601f16801561036b5780820380516001836020036101000a031916815260200191505b50838103825284818151815260200191508051906020019080838360005b838110156103a4578082015181840152602081019050610389565b50505050905090810190601f1680156103d15780820380516001836020036101000a031916815260200191505b509450505050506040516020818303038152906040527f4b5c4277000000000000000000000000000000000000000000000000000000007bffffffffffffffffffffffffffffffffffffffffffffffffffffffff19166020820180517bffffffffffffffffffffffffffffffffffffffffffffffffffffffff8381831617835250505050610638565b5050565b61063383838360405160240180806020018060200180602001848103845287818151815260200191508051906020019080838360005b838110156104af578082015181840152602081019050610494565b50505050905090810190601f1680156104dc5780820380516001836020036101000a031916815260200191505b50848103835286818151815260200191508051906020019080838360005b838110156105155780820151818401526020810190506104fa565b50505050905090810190601f1680156105425780820380516001836020036101000a031916815260200191505b50848103825285818151815260200191508051906020019080838360005b8381101561057b578082015181840152602081019050610560565b50505050905090810190601f1680156105a85780820380516001836020036101000a031916815260200191505b5096505050505050506040516020818303038152906040527f2ced7cef000000000000000000000000000000000000000000000000000000007bffffffffffffffffffffffffffffffffffffffffffffffffffffffff19166020820180517bffffffffffffffffffffffffffffffffffffffffffffffffffffffff8381831617835250505050610638565b505050565b60008151905060006a636f6e736f6c652e6c6f679050602083016000808483855afa5050505050565b828054600181600116156101000203166002900490600052602060002090601f01602090048101928261069757600085556106de565b82601f106106b057805160ff19168380011785556106de565b828001600101855582156106de579182015b828111156106dd5782518255916020019190600101906106c2565b5b5090506106eb91906106ef565b5090565b5b808211156107085760008160009055506001016106f0565b509056fe4368616e67696e67206772656574696e672066726f6d202725732720746f2027257327a2646970667358221220c7075dec3ff1ffb29ae049b1be4ec8b4cdc3c943d0449b13263b1941628555d464736f6c634300070600334465706c6f79696e67206120477265657465722077697468206772656574696e673a","abi":[{"inputs":[{"internalType":"string","name":"_greeting","type":"string"}],"stateMutability":"nonpayable","type":"constructor"},{"inputs":[],"name":"greet","outputs":[{"internalType":"string","name":"","type":"string"}],"stateMutability":"view","type":"function"},{"inputs":[{"internalType":"string","name":"_greeting","type":"string"}],"name":"setGreeting","outputs":[],"stateMutability":"nonpayable","type":"function"}]}